{
  "contractName": "Test",
  "abi": [
    {
      "inputs": [
        {
          "internalType": "address",
          "name": "_verifier",
          "type": "address"
        }
      ],
      "stateMutability": "nonpayable",
      "type": "constructor"
    },
    {
      "anonymous": false,
      "inputs": [
        {
          "indexed": true,
          "internalType": "bytes",
          "name": "ipfsCid",
          "type": "bytes"
        },
        {
          "indexed": false,
          "internalType": "uint256",
          "name": "bobDecryptingPubKeyX",
          "type": "uint256"
        }
      ],
      "name": "BidReclaimed",
      "type": "event"
    },
    {
      "anonymous": false,
      "inputs": [
        {
          "indexed": true,
          "internalType": "bytes",
          "name": "ipfsCidIndexed",
          "type": "bytes"
        },
        {
          "indexed": false,
          "internalType": "bytes",
          "name": "ipfsCid",
          "type": "bytes"
        }
      ],
      "name": "BobsCanNowSellKeys",
      "type": "event"
    },
    {
      "anonymous": false,
      "inputs": [
        {
          "indexed": false,
          "internalType": "bytes",
          "name": "ipfsCid",
          "type": "bytes"
        },
        {
          "indexed": false,
          "internalType": "string",
          "name": "fileType",
          "type": "string"
        },
        {
          "indexed": false,
          "internalType": "uint256",
          "name": "priceInEth",
          "type": "uint256"
        },
        {
          "indexed": false,
          "internalType": "uint256",
          "name": "royaltyPercentage",
          "type": "uint256"
        },
        {
          "indexed": false,
          "internalType": "bytes4",
          "name": "fileCategory",
          "type": "bytes4"
        },
        {
          "indexed": false,
          "internalType": "uint256",
          "name": "howManyDKeysForSale",
          "type": "uint256"
        }
      ],
      "name": "ListingCreated",
      "type": "event"
    },
    {
      "anonymous": false,
      "inputs": [
        {
          "indexed": true,
          "internalType": "bytes",
          "name": "ipfsCidIndexed",
          "type": "bytes"
        },
        {
          "indexed": false,
          "internalType": "bytes",
          "name": "ipfsCid",
          "type": "bytes"
        },
        {
          "indexed": false,
          "internalType": "uint256[2]",
          "name": "bobDecryptingPubKey",
          "type": "uint256[2]"
        },
        {
          "indexed": false,
          "internalType": "address",
          "name": "bobEthAddress",
          "type": "address"
        },
        {
          "indexed": false,
          "internalType": "uint256",
          "name": "bobBidAmount",
          "type": "uint256"
        },
        {
          "indexed": false,
          "internalType": "bool",
          "name": "bobCanFillThisBid",
          "type": "bool"
        }
      ],
      "name": "PaymentReceived",
      "type": "event"
    },
    {
      "anonymous": false,
      "inputs": [
        {
          "indexed": false,
          "internalType": "string",
          "name": "fileType",
          "type": "string"
        },
        {
          "indexed": false,
          "internalType": "bytes",
          "name": "ipfsCid",
          "type": "bytes"
        },
        {
          "indexed": true,
          "internalType": "uint256",
          "name": "bobDecryptingPubKey",
          "type": "uint256"
        },
        {
          "indexed": false,
          "internalType": "uint256[4]",
          "name": "dKey",
          "type": "uint256[4]"
        },
        {
          "indexed": false,
          "internalType": "uint256",
          "name": "bobDecryptingPubKeyX",
          "type": "uint256"
        }
      ],
      "name": "ReencryptedKeyProvided",
      "type": "event"
    },
    {
      "inputs": [
        {
          "internalType": "bytes",
          "name": "",
          "type": "bytes"
        }
      ],
      "name": "allListings",
      "outputs": [
        {
          "internalType": "string",
          "name": "fileType",
          "type": "string"
        },
        {
          "internalType": "uint256",
          "name": "howManyDKeysForSale",
          "type": "uint256"
        },
        {
          "internalType": "uint256",
          "name": "howManyDKeysSold",
          "type": "uint256"
        },
        {
          "internalType": "uint256",
          "name": "priceInEth",
          "type": "uint256"
        },
        {
          "internalType": "uint256",
          "name": "royaltyPercentage",
          "type": "uint256"
        },
        {
          "internalType": "uint256",
          "name": "poseidonHashedSecretKey",
          "type": "uint256"
        },
        {
          "internalType": "address payable",
          "name": "aliceEthAddress",
          "type": "address"
        },
        {
          "internalType": "bool",
          "name": "bobsCanSellTheirDkeys",
          "type": "bool"
        }
      ],
      "stateMutability": "view",
      "type": "function",
      "constant": true
    },
    {
      "inputs": [
        {
          "internalType": "bytes",
          "name": "",
          "type": "bytes"
        }
      ],
      "name": "existingListings",
      "outputs": [
        {
          "internalType": "bool",
          "name": "",
          "type": "bool"
        }
      ],
      "stateMutability": "view",
      "type": "function",
      "constant": true
    },
    {
      "inputs": [
        {
          "internalType": "string",
          "name": "_fileType",
          "type": "string"
        },
        {
          "internalType": "bytes",
          "name": "_ipfsCid",
          "type": "bytes"
        },
        {
          "internalType": "uint256",
          "name": "_howManyDKeysForSale",
          "type": "uint256"
        },
        {
          "internalType": "uint256",
          "name": "_priceInEth",
          "type": "uint256"
        },
        {
          "internalType": "uint256",
          "name": "_royaltyPercentage",
          "type": "uint256"
        },
        {
          "internalType": "uint256",
          "name": "_poseidonHashedSecretKey",
          "type": "uint256"
        },
        {
          "internalType": "bytes4",
          "name": "_fileCategory",
          "type": "bytes4"
        }
      ],
      "name": "aliceCreatesListing",
      "outputs": [],
      "stateMutability": "nonpayable",
      "type": "function"
    },
    {
      "inputs": [
        {
          "internalType": "bytes",
          "name": "_ipfsCid",
          "type": "bytes"
        },
        {
          "internalType": "uint256[2]",
          "name": "_bobDecryptingPubKey",
          "type": "uint256[2]"
        }
      ],
      "name": "bobSendsPaymentToListing",
      "outputs": [],
      "stateMutability": "payable",
      "type": "function",
      "payable": true
    },
    {
      "inputs": [
        {
          "internalType": "bytes",
          "name": "_ipfsCid",
          "type": "bytes"
        },
        {
          "internalType": "uint256[2]",
          "name": "_pA",
          "type": "uint256[2]"
        },
        {
          "internalType": "uint256[2][2]",
          "name": "_pB",
          "type": "uint256[2][2]"
        },
        {
          "internalType": "uint256[2]",
          "name": "_pC",
          "type": "uint256[2]"
        },
        {
          "internalType": "uint256[7]",
          "name": "_pubSignals",
          "type": "uint256[7]"
        }
      ],
      "name": "aliceSendsDKey",
      "outputs": [],
      "stateMutability": "nonpayable",
      "type": "function"
    },
    {
      "inputs": [
        {
          "internalType": "bytes",
          "name": "_ipfsCid",
          "type": "bytes"
        },
        {
          "internalType": "uint256[2]",
          "name": "_pA",
          "type": "uint256[2]"
        },
        {
          "internalType": "uint256[2][2]",
          "name": "_pB",
          "type": "uint256[2][2]"
        },
        {
          "internalType": "uint256[2]",
          "name": "_pC",
          "type": "uint256[2]"
        },
        {
          "internalType": "uint256[7]",
          "name": "_pubSignals",
          "type": "uint256[7]"
        }
      ],
      "name": "bobSendsDKey",
      "outputs": [],
      "stateMutability": "nonpayable",
      "type": "function"
    },
    {
      "inputs": [
        {
          "internalType": "bytes",
          "name": "_ipfsCid",
          "type": "bytes"
        }
      ],
      "name": "bobReclaimsBid",
      "outputs": [],
      "stateMutability": "nonpayable",
      "type": "function"
    }
  ],
  "bytecode": "0x60806040527379d78e89419839ff45eed419b41e5c6b04f839c0600160006101000a81548173ffffffffffffffffffffffffffffffffffffffff021916908373ffffffffffffffffffffffffffffffffffffffff16021790555034801561006557600080fd5b506040516135023803806135028339818101604052602081101561008857600080fd5b8101908080519060200190929190505050806000806101000a81548173ffffffffffffffffffffffffffffffffffffffff021916908373ffffffffffffffffffffffffffffffffffffffff16021790555050613419806100e96000396000f3fe60806040526004361061006f5760003560e01c80636f5cce7d1161004e5780636f5cce7d14610316578063aca37c7414610407578063b952ecfe146104f8578063f5061c08146106825761006f565b806247593314610074578063445b6eb11461013c5780634589a8bd1461021a575b600080fd5b34801561008057600080fd5b5061013a6004803603602081101561009757600080fd5b81019080803590602001906401000000008111156100b457600080fd5b8201836020820111156100c657600080fd5b803590602001918460018302840111640100000000831117156100e857600080fd5b91908080601f016020809104026020016040519081016040528093929190818152602001838380828437600081840152601f19601f820116905080830192505050505050509192919290505050610832565b005b34801561014857600080fd5b506102026004803603602081101561015f57600080fd5b810190808035906020019064010000000081111561017c57600080fd5b82018360208201111561018e57600080fd5b803590602001918460018302840111640100000000831117156101b057600080fd5b91908080601f016020809104026020016040519081016040528093929190818152602001838380828437600081840152601f19601f820116905080830192505050505050509192919290505050610d53565b60405180821515815260200191505060405180910390f35b6103146004803603606081101561023057600080fd5b810190808035906020019064010000000081111561024d57600080fd5b82018360208201111561025f57600080fd5b8035906020019184600183028401116401000000008311171561028157600080fd5b91908080601f016020809104026020016040519081016040528093929190818152602001838380828437600081840152601f19601f82011690508083019250505050505050919291929080604001906002806020026040519081016040528092919082600260200280828437600081840152601f19601f8201169050808301925050505050509192919290505050610d89565b005b34801561032257600080fd5b50610405600480360361020081101561033a57600080fd5b810190808035906020019064010000000081111561035757600080fd5b82018360208201111561036957600080fd5b8035906020019184600183028401116401000000008311171561038b57600080fd5b91908080601f016020809104026020016040519081016040528093929190818152602001838380828437600081840152601f19601f8201169050808301925050505050505091929192908060400190919291929080608001909192919290806040019091929192908060e0019091929192905050506114b5565b005b34801561041357600080fd5b506104f6600480360361020081101561042b57600080fd5b810190808035906020019064010000000081111561044857600080fd5b82018360208201111561045a57600080fd5b8035906020019184600183028401116401000000008311171561047c57600080fd5b91908080601f016020809104026020016040519081016040528093929190818152602001838380828437600081840152601f19601f8201169050808301925050505050505091929192908060400190919291929080608001909192919290806040019091929192908060e001909192919290505050612125565b005b34801561050457600080fd5b506105be6004803603602081101561051b57600080fd5b810190808035906020019064010000000081111561053857600080fd5b82018360208201111561054a57600080fd5b8035906020019184600183028401116401000000008311171561056c57600080fd5b91908080601f016020809104026020016040519081016040528093929190818152602001838380828437600081840152601f19601f820116905080830192505050505050509192919290505050612cfa565b60405180806020018981526020018881526020018781526020018681526020018581526020018473ffffffffffffffffffffffffffffffffffffffff168152602001831515815260200182810382528a818151815260200191508051906020019080838360005b83811015610640578082015181840152602081019050610625565b50505050905090810190601f16801561066d5780820380516001836020036101000a031916815260200191505b50995050505050505050505060405180910390f35b34801561068e57600080fd5b50610830600480360360e08110156106a557600080fd5b81019080803590602001906401000000008111156106c257600080fd5b8201836020820111156106d457600080fd5b803590602001918460018302840111640100000000831117156106f657600080fd5b91908080601f016020809104026020016040519081016040528093929190818152602001838380828437600081840152601f19601f8201169050808301925050505050505091929192908035906020019064010000000081111561075957600080fd5b82018360208201111561076b57600080fd5b8035906020019184600183028401116401000000008311171561078d57600080fd5b91908080601f016020809104026020016040519081016040528093929190818152602001838380828437600081840152601f19601f8201169050808301925050505050505091929192908035906020019092919080359060200190929190803590602001909291908035906020019092919080357bffffffffffffffffffffffffffffffffffffffffffffffffffffffff19169060200190929190505050612e1d565b005b60006002826040518082805190602001908083835b6020831061086a5780518252602082019150602081019050602083039250610847565b6001836020036101000a0380198251168184511680821785525050505050509050019150509081526020016040518091039020600a0160003373ffffffffffffffffffffffffffffffffffffffff16815260200190815260200160002054905060006002836040518082805190602001908083835b6020831061090257805182526020820191506020810190506020830392506108df565b6001836020036101000a038019825116818451168082178552505050505050905001915050908152602001604051809103902060080160008381526020019081526020016000205490506002836040518082805190602001908083835b60208310610982578051825260208201915060208101905060208303925061095f565b6001836020036101000a0380198251168184511680821785525050505050509050019150509081526020016040518091039020600701600083815260200190815260200160002060009054906101000a900460ff166109e057600080fd5b6002836040518082805190602001908083835b60208310610a1657805182526020820191506020810190506020830392506109f3565b6001836020036101000a0380198251168184511680821785525050505050509050019150509081526020016040518091039020600901600083815260200190815260200160002060009054906101000a900460ff1615610ac1576040517f08c379a000000000000000000000000000000000000000000000000000000000815260040180806020018281038252602d8152602001806132b6602d913960400191505060405180910390fd5b60006002846040518082805190602001908083835b60208310610af95780518252602082019150602081019050602083039250610ad6565b6001836020036101000a0380198251168184511680821785525050505050509050019150509081526020016040518091039020600701600084815260200190815260200160002060006101000a81548160ff0219169083151502179055506002836040518082805190602001908083835b60208310610b8d5780518252602082019150602081019050602083039250610b6a565b6001836020036101000a03801982511681845116808217855250505050505090500191505090815260200160405180910390206008016000838152602001908152602001600020600090556002836040518082805190602001908083835b60208310610c0e5780518252602082019150602081019050602083039250610beb565b6001836020036101000a0380198251168184511680821785525050505050509050019150509081526020016040518091039020600a0160003373ffffffffffffffffffffffffffffffffffffffff168152602001908152602001600020600090553373ffffffffffffffffffffffffffffffffffffffff166108fc829081150290604051600060405180830381858888f19350505050158015610cb5573d6000803e3d6000fd5b50826040518082805190602001908083835b60208310610cea5780518252602082019150602081019050602083039250610cc7565b6001836020036101000a03801982511681845116808217855250505050505090500191505060405180910390207fad38fcacd53a2c01e636aeb2212570ac5f6426d807db6739a37151014e0091b9836040518082815260200191505060405180910390a2505050565b6003818051602081018201805184825260208301602085012081835280955050505050506000915054906101000a900460ff1681565b600115156003836040518082805190602001908083835b60208310610dc35780518252602082019150602081019050602083039250610da0565b6001836020036101000a038019825116818451168082178552505050505050905001915050908152602001604051809103902060009054906101000a900460ff16151514610e79576040517f08c379a00000000000000000000000000000000000000000000000000000000081526004018080602001828103825260168152602001807f6c697374696e6720646f6573206e6f742065786973740000000000000000000081525060200191505060405180910390fd5b60006002836040518082805190602001908083835b60208310610eb15780518252602082019150602081019050602083039250610e8e565b6001836020036101000a0380198251168184511680821785525050505050509050019150509081526020016040518091039020905080600301543411610f42576040517f08c379a000000000000000000000000000000000000000000000000000000000815260040180806020018281038252602781526020018061335d6027913960400191505060405180910390fd5b600015156002846040518082805190602001908083835b60208310610f7c5780518252602082019150602081019050602083039250610f59565b6001836020036101000a0380198251168184511680821785525050505050509050019150509081526020016040518091039020600701600084600060028110610fc157fe5b6020020151815260200190815260200160002060009054906101000a900460ff16151514610fee57600080fd5b60006002846040518082805190602001908083835b602083106110265780518252602082019150602081019050602083039250611003565b6001836020036101000a0380198251168184511680821785525050505050509050019150509081526020016040518091039020600a0160003373ffffffffffffffffffffffffffffffffffffffff16815260200190815260200160002054146110f7576040517f08c379a00000000000000000000000000000000000000000000000000000000081526004018080602001828103825260168152602001807f6f6e6c792031206269642070657220616464726573730000000000000000000081525060200191505060405180910390fd5b60016002846040518082805190602001908083835b6020831061112f578051825260208201915060208101905060208303925061110c565b6001836020036101000a038019825116818451168082178552505050505050905001915050908152602001604051809103902060070160008460006002811061117457fe5b6020020151815260200190815260200160002060006101000a81548160ff021916908315150217905550826040518082805190602001908083835b602083106111d257805182526020820191506020810190506020830392506111af565b6001836020036101000a03801982511681845116808217855250505050505090500191505060405180910390207ff29f4e30317537dabc3bfd27a876a2999cfaf893c62ac71012743f62cb2e1862848433346002896040518082805190602001908083835b6020831061125a5780518252602082019150602081019050602083039250611237565b6001836020036101000a0380198251168184511680821785525050505050509050019150509081526020016040518091039020600b0160009054906101000a900460ff16604051808060200186600260200280838360005b838110156112cd5780820151818401526020810190506112b2565b505050509050018573ffffffffffffffffffffffffffffffffffffffff1681526020018481526020018315158152602001828103825287818151815260200191508051906020019080838360005b8381101561133657808201518184015260208101905061131b565b50505050905090810190601f1680156113635780820380516001836020036101000a031916815260200191505b50965050505050505060405180910390a2346002846040518082805190602001908083835b602083106113ab5780518252602082019150602081019050602083039250611388565b6001836020036101000a03801982511681845116808217855250505050505090500191505090815260200160405180910390206008016000846000600281106113f057fe5b60200201518152602001908152602001600020819055508160006002811061141457fe5b60200201516002846040518082805190602001908083835b6020831061144f578051825260208201915060208101905060208303925061142c565b6001836020036101000a0380198251168184511680821785525050505050509050019150509081526020016040518091039020600a0160003373ffffffffffffffffffffffffffffffffffffffff16815260200190815260200160002081905550505050565b600015156002866040518082805190602001908083835b602083106114ef57805182526020820191506020810190506020830392506114cc565b6001836020036101000a0380198251168184511680821785525050505050509050019150509081526020016040518091039020600b0160009054906101000a900460ff1615151461153f57600080fd5b6115476131d4565b8160056007811061155457fe5b60200201358160006002811061156657fe5b6020020181815250508160066007811061157c57fe5b60200201358160016002811061158e57fe5b60200201818152505061159f6131f6565b826000600781106115ac57fe5b6020020135816000600481106115be57fe5b602002018181525050826001600781106115d457fe5b6020020135816001600481106115e657fe5b602002018181525050826002600781106115fc57fe5b60200201358160026004811061160e57fe5b6020020181815250508260036007811061162457fe5b60200201358160036004811061163657fe5b6020020181815250506002876040518082805190602001908083835b602083106116755780518252602082019150602081019050602083039250611652565b6001836020036101000a038019825116818451168082178552505050505050905001915050908152602001604051809103902060050154836004600781106116b957fe5b6020020135146116c857600080fd5b600115156002886040518082805190602001908083835b6020831061170257805182526020820191506020810190506020830392506116df565b6001836020036101000a038019825116818451168082178552505050505050905001915050908152602001604051809103902060070160008460006002811061174757fe5b6020020151815260200190815260200160002060009054906101000a900460ff1615151480156118165750600015156002886040518082805190602001908083835b602083106117ac5780518252602082019150602081019050602083039250611789565b6001836020036101000a03801982511681845116808217855250505050505090500191505090815260200160405180910390206009016000846000600281106117f157fe5b6020020151815260200190815260200160002060009054906101000a900460ff161515145b61186b576040517f08c379a00000000000000000000000000000000000000000000000000000000081526004018080602001828103825260358152602001806133286035913960400191505060405180910390fd5b60008060009054906101000a900473ffffffffffffffffffffffffffffffffffffffff1673ffffffffffffffffffffffffffffffffffffffff1663c894e757888888886040518563ffffffff1660e01b81526004018085600260200280828437600081840152601f19601f82011690508083019250505084600260400280828437600081840152601f19601f82011690508083019250505083600260200280828437600081840152601f19601f82011690508083019250505082600760200280828437600081840152601f19601f82011690508083019250505094505050505060206040518083038186803b15801561196357600080fd5b505afa158015611977573d6000803e3d6000fd5b505050506040513d602081101561198d57600080fd5b8101908080519060200190929190505050905060011515811515146119b157600080fd5b826000600281106119be57fe5b60200201517f3f3c9b07983e27d1a1786abd7fb0464398ebed85b739545fdc1da91c7dd178c460028a6040518082805190602001908083835b60208310611a1a57805182526020820191506020810190506020830392506119f7565b6001836020036101000a03801982511681845116808217855250505050505090500191505090815260200160405180910390206000018a8587600060028110611a5f57fe5b602002015160405180806020018060200185600460200280838360005b83811015611a97578082015181840152602081019050611a7c565b50505050905001848152602001838103835287818154600181600116156101000203166002900481526020019150805460018160011615610100020316600290048015611b255780601f10611afa57610100808354040283529160200191611b25565b820191906000526020600020905b815481529060010190602001808311611b0857829003601f168201915b5050838103825286818151815260200191508051906020019080838360005b83811015611b5f578082015181840152602081019050611b44565b50505050905090810190601f168015611b8c5780820380516001836020036101000a031916815260200191505b50965050505050505060405180910390a260006002896040518082805190602001908083835b60208310611bd55780518252602082019150602081019050602083039250611bb2565b6001836020036101000a0380198251168184511680821785525050505050509050019150509081526020016040518091039020600801600085600060028110611c1a57fe5b60200201518152602001908152602001600020549050600060646063830281611c3f57fe5b049050600060646001840281611c5157fe5b04905060028b6040518082805190602001908083835b60208310611c8a5780518252602082019150602081019050602083039250611c67565b6001836020036101000a038019825116818451168082178552505050505050905001915050908152602001604051809103902060060160009054906101000a900473ffffffffffffffffffffffffffffffffffffffff1673ffffffffffffffffffffffffffffffffffffffff166108fc839081150290604051600060405180830381858888f19350505050158015611d26573d6000803e3d6000fd5b50600160009054906101000a900473ffffffffffffffffffffffffffffffffffffffff1673ffffffffffffffffffffffffffffffffffffffff166108fc829081150290604051600060405180830381858888f19350505050158015611d8f573d6000803e3d6000fd5b50600160028c6040518082805190602001908083835b60208310611dc85780518252602082019150602081019050602083039250611da5565b6001836020036101000a0380198251168184511680821785525050505050509050019150509081526020016040518091039020600901600088600060028110611e0d57fe5b6020020151815260200190815260200160002060006101000a81548160ff021916908315150217905550600160028c6040518082805190602001908083835b60208310611e6f5780518252602082019150602081019050602083039250611e4c565b6001836020036101000a038019825116818451168082178552505050505050905001915050908152602001604051809103902060020160008282540192505081905550600060028c6040518082805190602001908083835b60208310611eea5780518252602082019150602081019050602083039250611ec7565b6001836020036101000a03801982511681845116808217855250505050505090500191505090815260200160405180910390206002015460028d6040518082805190602001908083835b60208310611f575780518252602082019150602081019050602083039250611f34565b6001836020036101000a03801982511681845116808217855250505050505090500191505090815260200160405180910390206001015403141561211857600160028c6040518082805190602001908083835b60208310611fcd5780518252602082019150602081019050602083039250611faa565b6001836020036101000a0380198251168184511680821785525050505050509050019150509081526020016040518091039020600b0160006101000a81548160ff0219169083151502179055508a6040518082805190602001908083835b6020831061204e578051825260208201915060208101905060208303925061202b565b6001836020036101000a03801982511681845116808217855250505050505090500191505060405180910390207f1f49f483f1ece3a0bccd39a77f4cfaf39dd41cd1397ec28d73c80c80844bba598c6040518080602001828103825283818151815260200191508051906020019080838360005b838110156120dd5780820151818401526020810190506120c2565b50505050905090810190601f16801561210a5780820380516001836020036101000a031916815260200191505b509250505060405180910390a25b5050505050505050505050565b600115156002866040518082805190602001908083835b6020831061215f578051825260208201915060208101905060208303925061213c565b6001836020036101000a0380198251168184511680821785525050505050509050019150509081526020016040518091039020600b0160009054906101000a900460ff161515146121fb576040517f08c379a00000000000000000000000000000000000000000000000000000000081526004018080602001828103825260458152602001806132e36045913960600191505060405180910390fd5b6122036131d4565b8160056007811061221057fe5b60200201358160006002811061222257fe5b6020020181815250508160066007811061223857fe5b60200201358160016002811061224a57fe5b60200201818152505061225b6131f6565b8260006007811061226857fe5b60200201358160006004811061227a57fe5b6020020181815250508260016007811061229057fe5b6020020135816001600481106122a257fe5b602002018181525050826002600781106122b857fe5b6020020135816002600481106122ca57fe5b602002018181525050826003600781106122e057fe5b6020020135816003600481106122f257fe5b6020020181815250506002876040518082805190602001908083835b60208310612331578051825260208201915060208101905060208303925061230e565b6001836020036101000a0380198251168184511680821785525050505050509050019150509081526020016040518091039020600501548360046007811061237557fe5b6020020135146123d0576040517f08c379a00000000000000000000000000000000000000000000000000000000081526004018080602001828103825260278152602001806133bd6027913960400191505060405180910390fd5b600115156002886040518082805190602001908083835b6020831061240a57805182526020820191506020810190506020830392506123e7565b6001836020036101000a038019825116818451168082178552505050505050905001915050908152602001604051809103902060070160008460006002811061244f57fe5b6020020151815260200190815260200160002060009054906101000a900460ff16151514801561251e5750600015156002886040518082805190602001908083835b602083106124b45780518252602082019150602081019050602083039250612491565b6001836020036101000a03801982511681845116808217855250505050505090500191505090815260200160405180910390206009016000846000600281106124f957fe5b6020020151815260200190815260200160002060009054906101000a900460ff161515145b612573576040517f08c379a00000000000000000000000000000000000000000000000000000000081526004018080602001828103825260358152602001806133286035913960400191505060405180910390fd5b60008060009054906101000a900473ffffffffffffffffffffffffffffffffffffffff1673ffffffffffffffffffffffffffffffffffffffff1663c894e757888888886040518563ffffffff1660e01b81526004018085600260200280828437600081840152601f19601f82011690508083019250505084600260400280828437600081840152601f19601f82011690508083019250505083600260200280828437600081840152601f19601f82011690508083019250505082600760200280828437600081840152601f19601f82011690508083019250505094505050505060206040518083038186803b15801561266b57600080fd5b505afa15801561267f573d6000803e3d6000fd5b505050506040513d602081101561269557600080fd5b810190808051906020019092919050505090506001151581151514612722576040517f08c379a000000000000000000000000000000000000000000000000000000000815260040180806020018281038252601f8152602001807f766572696669636174696f6e206f66207a6b2070726f6f66206661696c65640081525060200191505060405180910390fd5b8260006002811061272f57fe5b60200201517f3f3c9b07983e27d1a1786abd7fb0464398ebed85b739545fdc1da91c7dd178c460028a6040518082805190602001908083835b6020831061278b5780518252602082019150602081019050602083039250612768565b6001836020036101000a03801982511681845116808217855250505050505090500191505090815260200160405180910390206000018a85876000600281106127d057fe5b602002015160405180806020018060200185600460200280838360005b838110156128085780820151818401526020810190506127ed565b505050509050018481526020018381038352878181546001816001161561010002031660029004815260200191508054600181600116156101000203166002900480156128965780601f1061286b57610100808354040283529160200191612896565b820191906000526020600020905b81548152906001019060200180831161287957829003601f168201915b5050838103825286818151815260200191508051906020019080838360005b838110156128d05780820151818401526020810190506128b5565b50505050905090810190601f1680156128fd5780820380516001836020036101000a031916815260200191505b50965050505050505060405180910390a260006002896040518082805190602001908083835b602083106129465780518252602082019150602081019050602083039250612923565b6001836020036101000a038019825116818451168082178552505050505050905001915050908152602001604051809103902060080160008560006002811061298b57fe5b60200201518152602001908152602001600020549050600060028a6040518082805190602001908083835b602083106129d957805182526020820191506020810190506020830392506129b6565b6001836020036101000a03801982511681845116808217855250505050505090500191505090815260200160405180910390206004015490506000606482840281612a2057fe5b0490506000606483606303850281612a3457fe5b049050600060648581612a4357fe5b04905060028d6040518082805190602001908083835b60208310612a7c5780518252602082019150602081019050602083039250612a59565b6001836020036101000a038019825116818451168082178552505050505050905001915050908152602001604051809103902060060160009054906101000a900473ffffffffffffffffffffffffffffffffffffffff1673ffffffffffffffffffffffffffffffffffffffff166108fc849081150290604051600060405180830381858888f19350505050158015612b18573d6000803e3d6000fd5b503373ffffffffffffffffffffffffffffffffffffffff166108fc839081150290604051600060405180830381858888f19350505050158015612b5f573d6000803e3d6000fd5b50600160009054906101000a900473ffffffffffffffffffffffffffffffffffffffff1673ffffffffffffffffffffffffffffffffffffffff166108fc829081150290604051600060405180830381858888f19350505050158015612bc8573d6000803e3d6000fd5b50600160028e6040518082805190602001908083835b60208310612c015780518252602082019150602081019050602083039250612bde565b6001836020036101000a038019825116818451168082178552505050505050905001915050908152602001604051809103902060090160008a600060028110612c4657fe5b6020020151815260200190815260200160002060006101000a81548160ff021916908315150217905550600160028e6040518082805190602001908083835b60208310612ca85780518252602082019150602081019050602083039250612c85565b6001836020036101000a03801982511681845116808217855250505050505090500191505090815260200160405180910390206002016000828254019250508190555050505050505050505050505050565b600281805160208101820180518482526020830160208501208183528095505050505050600091509050806000018054600181600116156101000203166002900480601f016020809104026020016040519081016040528092919081815260200182805460018160011615610100020316600290048015612dbc5780601f10612d9157610100808354040283529160200191612dbc565b820191906000526020600020905b815481529060010190602001808311612d9f57829003601f168201915b5050505050908060010154908060020154908060030154908060040154908060050154908060060160009054906101000a900473ffffffffffffffffffffffffffffffffffffffff169080600b0160009054906101000a900460ff16905088565b600015156003876040518082805190602001908083835b60208310612e575780518252602082019150602081019050602083039250612e34565b6001836020036101000a038019825116818451168082178552505050505050905001915050908152602001604051809103902060009054906101000a900460ff16151514612ea457600080fd5b606483108015612eb45750600083115b612f09576040517f08c379a00000000000000000000000000000000000000000000000000000000081526004018080602001828103825260398152602001806133846039913960400191505060405180910390fd5b60006002876040518082805190602001908083835b60208310612f415780518252602082019150602081019050602083039250612f1e565b6001836020036101000a038019825116818451168082178552505050505050905001915050908152602001604051809103902090508581600101819055506000816002018190555084816003018190555083816004018190555087816000019080519060200190612fb3929190613218565b50828160050181905550338160060160006101000a81548173ffffffffffffffffffffffffffffffffffffffff021916908373ffffffffffffffffffffffffffffffffffffffff16021790555060016003886040518082805190602001908083835b602083106130385780518252602082019150602081019050602083039250613015565b6001836020036101000a038019825116818451168082178552505050505050905001915050908152602001604051809103902060006101000a81548160ff0219169083151502179055507f329773867b9b2ee63162415a1df82379c3d27e2d1867fc66db2a862a4aecc67d87898787868b604051808060200180602001878152602001868152602001857bffffffffffffffffffffffffffffffffffffffffffffffffffffffff19168152602001848152602001838103835289818151815260200191508051906020019080838360005b83811015613124578082015181840152602081019050613109565b50505050905090810190601f1680156131515780820380516001836020036101000a031916815260200191505b50838103825288818151815260200191508051906020019080838360005b8381101561318a57808201518184015260208101905061316f565b50505050905090810190601f1680156131b75780820380516001836020036101000a031916815260200191505b509850505050505050505060405180910390a15050505050505050565b6040518060400160405280600290602082028036833780820191505090505090565b6040518060800160405280600490602082028036833780820191505090505090565b828054600181600116156101000203166002900490600052602060002090601f016020900481019282601f1061325957805160ff1916838001178555613287565b82800160010185558215613287579182015b8281111561328657825182559160200191906001019061326b565b5b5090506132949190613298565b5090565b5b808211156132b1576000816000905550600101613299565b509056fe7468697320616464726573732068617320616c7265616479206265656e2070726f7669646564206120444b4559616c69636520686173206e6f742079657420736f6c64207468652072657127642023206f6620646b65797320696e206f7264657220666f7220626f627320746f2073656c6c7468697320626f6220686173206e6f7420706169642c206f722077617320616c72656164792070726f7669646564206120646b657962696473206d757374206265203e20616c69636527732073706563696669656420616d6f756e74726f79616c747920616d6f756e74206d7573742062652067726561746572207468616e20302520616e64206c657373207468616e2031303025706f736569646f6e2068617368206f6620746865206b657920646f6573206e6f74206d61746368a26469706673582212202839eb62e81dd1dfe0b9429ae6b555e2d243d8623788c109d41857bbcf8067c864736f6c63430007000033",
  "immutableReferences": {},
  "source": "// SPDX-License-Identifier: AGPL-3.0-or-later\n\npragma solidity >=0.7.0 <0.8.20;\n\ninterface IVerifier {\n  function verifyProof(\n    uint256[2] memory _pA,\n    uint256[2][2] memory _pB,\n    uint256[2] memory _pC,\n    uint256[7] memory _pubSignals\n  ) external view returns (bool);\n}\n\ncontract Test {\n\n    IVerifier zkVerifier;\n\n    constructor(address _verifier) {\n        zkVerifier = IVerifier(_verifier);\n    }\n\n    address payable owner = payable(0x79d78e89419839Ff45EED419B41E5c6b04F839c0); // just a ganache address\n\n    event ListingCreated(bytes ipfsCid, string fileType, uint priceInEth, uint royaltyPercentage, bytes4 fileCategory, uint howManyDKeysForSale);\n    event PaymentReceived(bytes indexed ipfsCidIndexed, bytes ipfsCid, uint[2] bobDecryptingPubKey, address bobEthAddress, uint bobBidAmount, bool bobCanFillThisBid);\n    event ReencryptedKeyProvided(string fileType, bytes ipfsCid, uint indexed bobDecryptingPubKey, uint[4] dKey, uint bobDecryptingPubKeyX);\n    event BobsCanNowSellKeys(bytes indexed ipfsCidIndexed, bytes ipfsCid);\n    event BidReclaimed(bytes indexed ipfsCid, uint bobDecryptingPubKeyX);\n\n    mapping (bytes => Listing) public allListings;\n    mapping (bytes => bool) public existingListings;\n\n    struct Listing {\n        string fileType;\n        uint howManyDKeysForSale;\n        uint howManyDKeysSold;\n        uint priceInEth; \n        uint royaltyPercentage; // should be uint8\n        uint poseidonHashedSecretKey; \n        address payable aliceEthAddress;\n        mapping (uint => bool) bobsThatHavePaid; // using x-value of bob's decrypting public key only (can't map a uint[2]) -- this should(?) be secure... other option is concatenate, then do the mapping....\n        mapping (uint => uint) bobsByBidAmounts;\n        mapping (uint => bool) bobsThatHaveBeenProvidedDKeys;\n        mapping (uint => uint) bobsByEthAddress;\n        bool bobsCanSellTheirDkeys;\n    } \n    \n    function aliceCreatesListing(string memory _fileType, bytes memory _ipfsCid, uint _howManyDKeysForSale, uint _priceInEth, uint _royaltyPercentage, uint _poseidonHashedSecretKey, bytes4 _fileCategory) public {\n        require(existingListings[_ipfsCid] == false); \n        require(_royaltyPercentage < 100 && _royaltyPercentage > 0, \"royalty amount must be greater than 0% and less than 100%\");\n        Listing storage newListing = allListings[_ipfsCid];\n        newListing.howManyDKeysForSale = _howManyDKeysForSale;\n        newListing.howManyDKeysSold = 0;\n        newListing.priceInEth = _priceInEth;\n        newListing.royaltyPercentage = _royaltyPercentage;\n        newListing.fileType = _fileType;\n        newListing.poseidonHashedSecretKey = _poseidonHashedSecretKey;\n        newListing.aliceEthAddress = payable(msg.sender);\n        existingListings[_ipfsCid] = true;\n        emit ListingCreated(_ipfsCid, _fileType, _priceInEth, _royaltyPercentage, _fileCategory, _howManyDKeysForSale);\n    }\n\n    function bobSendsPaymentToListing(bytes memory _ipfsCid, uint[2] memory _bobDecryptingPubKey) public payable {\n        require(existingListings[_ipfsCid] == true, \"listing does not exist\");\n        Listing storage thisListing = allListings[_ipfsCid];\n        require (msg.value > thisListing.priceInEth, \"bids must be > alice's specified amount\");\n        require(allListings[_ipfsCid].bobsThatHavePaid[_bobDecryptingPubKey[0]] == false);\n        require(allListings[_ipfsCid].bobsByEthAddress[uint256(uint160(address(msg.sender)))] == 0, \"only 1 bid per address\");\n        allListings[_ipfsCid].bobsThatHavePaid[_bobDecryptingPubKey[0]] = true;\n        emit PaymentReceived(_ipfsCid, _ipfsCid, _bobDecryptingPubKey, msg.sender, msg.value, allListings[_ipfsCid].bobsCanSellTheirDkeys);\n        allListings[_ipfsCid].bobsByBidAmounts[_bobDecryptingPubKey[0]] = msg.value;\n        allListings[_ipfsCid].bobsByEthAddress[uint256(uint160(address(msg.sender)))] = _bobDecryptingPubKey[0];\n    }\n    \n    function aliceSendsDKey(bytes memory _ipfsCid, uint[2] calldata _pA, uint[2][2] calldata _pB, uint[2] calldata _pC, uint[7] calldata _pubSignals) public {\n        // limits alice to only selling as many dkeys as she originally specified in the Listing\n        require(allListings[_ipfsCid].bobsCanSellTheirDkeys == false);\n\n        // save bob's address + dkey to variables (possible that dKey doesn't need to be temporarily saved to memory...)\n        uint[2] memory bobDecryptingPubKey;\n        bobDecryptingPubKey[0] = _pubSignals[5];\n        bobDecryptingPubKey[1] = _pubSignals[6];\n        \n        uint[4] memory dKey;\n        dKey[0] = _pubSignals[0];\n        dKey[1] = _pubSignals[1];\n        dKey[2] = _pubSignals[2];\n        dKey[3] = _pubSignals[3];\n\n        // require poseidon hashed secret key in _pubSignals matches the Listing -- this should also serve to confirm if the listing exists (in case alice's frontend has called with incorrect _ipfsCid)\n        require(_pubSignals[4] == allListings[_ipfsCid].poseidonHashedSecretKey);\n        \n        // ensure that this bob has not yet been provided a dkey ...... can this be exploited by alice creating a proof for bob's valid x value (_pubSignals[5]) but using a made up y value? (i dont think so -- should only be one valid y coord for a given x coord, and the proof circuit has a check that the point is on curve)\n        require(allListings[_ipfsCid].bobsThatHavePaid[bobDecryptingPubKey[0]] == true && allListings[_ipfsCid].bobsThatHaveBeenProvidedDKeys[bobDecryptingPubKey[0]] == false, \"this bob has not paid, or was already provided a dkey\");\n\n        // verify proof\n        bool result = zkVerifier.verifyProof(_pA, _pB, _pC, _pubSignals);\n        require(result == true);\n\n        // emit event so that Bob can listen for when the dkey is posted on-chain\n        emit ReencryptedKeyProvided(allListings[_ipfsCid].fileType, _ipfsCid, bobDecryptingPubKey[0], dKey, bobDecryptingPubKey[0]);\n        \n        // send 99% of bob's bid amount to alice, and send remainder to \"owner\" contract. is there going to be a small error (+/- some wei) in what the transfer amounts should be as a result of the division?\n        uint256 bidAmount = allListings[_ipfsCid].bobsByBidAmounts[bobDecryptingPubKey[0]];\n        uint256 aliceTransferAmount = bidAmount * 99 / 100;\n        uint256 ownerTransferAmount = bidAmount * 1 / 100;\n        allListings[_ipfsCid].aliceEthAddress.transfer(aliceTransferAmount); \n        owner.transfer(ownerTransferAmount);\n\n        // show that this bob has been provided a dkey (to prevent alice sending the same dkey repeatedly to drain the smart contract & also show that this bob owns a dkey)\n        allListings[_ipfsCid].bobsThatHaveBeenProvidedDKeys[bobDecryptingPubKey[0]] = true;\n\n        // increment how many keys sold by 1\n        allListings[_ipfsCid].howManyDKeysSold += 1;\n\n        // check to see if enough dkeys have been sold by alice that bobs can now sell dkeys, and update bool accordingly. also firing an event for bob's front end to know that he is now able to sell his dkey.\n        if (allListings[_ipfsCid].howManyDKeysForSale - allListings[_ipfsCid].howManyDKeysSold == 0) {\n            allListings[_ipfsCid].bobsCanSellTheirDkeys = true;\n            emit BobsCanNowSellKeys(_ipfsCid, _ipfsCid);\n        }\n    }\n    \n    // whole lotta \"bob\" getting thrown around here... this is 1 bob responding with a dkey to another bob's bid...\n    function bobSendsDKey(bytes memory _ipfsCid, uint[2] calldata _pA, uint[2][2] calldata _pB, uint[2] calldata _pC, uint[7] calldata _pubSignals) public {\n        require(allListings[_ipfsCid].bobsCanSellTheirDkeys == true, \"alice has not yet sold the req'd # of dkeys in order for bobs to sell\");\n\n        uint[2] memory bobDecryptingPubKey;\n        bobDecryptingPubKey[0] = _pubSignals[5];\n        bobDecryptingPubKey[1] = _pubSignals[6];\n        \n        uint[4] memory dKey;\n        dKey[0] = _pubSignals[0];\n        dKey[1] = _pubSignals[1];\n        dKey[2] = _pubSignals[2];\n        dKey[3] = _pubSignals[3];\n\n        require(_pubSignals[4] == allListings[_ipfsCid].poseidonHashedSecretKey, \"poseidon hash of the key does not match\");\n        \n        require(allListings[_ipfsCid].bobsThatHavePaid[bobDecryptingPubKey[0]] == true && allListings[_ipfsCid].bobsThatHaveBeenProvidedDKeys[bobDecryptingPubKey[0]] == false, \"this bob has not paid, or was already provided a dkey\");\n\n        bool result = zkVerifier.verifyProof(_pA, _pB, _pC, _pubSignals);\n        require(result == true, \"verification of zk proof failed\");\n\n        emit ReencryptedKeyProvided(allListings[_ipfsCid].fileType, _ipfsCid, bobDecryptingPubKey[0], dKey, bobDecryptingPubKey[0]);\n        \n        uint256 bidAmount = allListings[_ipfsCid].bobsByBidAmounts[bobDecryptingPubKey[0]];\n        uint256 royaltyAmount = allListings[_ipfsCid].royaltyPercentage;\n        uint256 aliceTransferAmount = bidAmount * royaltyAmount / 100;\n        uint256 bobTransferAmount = bidAmount * (99 - royaltyAmount) / 100;\n        uint256 ownerTransferAmount = bidAmount / 100;\n        \n        allListings[_ipfsCid].aliceEthAddress.transfer(aliceTransferAmount); \n        payable(msg.sender).transfer(bobTransferAmount); \n        owner.transfer(ownerTransferAmount);\n\n        allListings[_ipfsCid].bobsThatHaveBeenProvidedDKeys[bobDecryptingPubKey[0]] = true;\n\n        // not needed, but leaving this cuz how many times a key changes hands could still be interesting... maybe for a \"listing leaderboard\"?\n        allListings[_ipfsCid].howManyDKeysSold += 1;\n    }\n\n    function bobReclaimsBid(bytes memory _ipfsCid) public {\n        uint256 bobDecryptingPubKeyX = allListings[_ipfsCid].bobsByEthAddress[uint256(uint160(address(msg.sender)))];\n        uint256 returnAmount = allListings[_ipfsCid].bobsByBidAmounts[bobDecryptingPubKeyX];\n        require(allListings[_ipfsCid].bobsThatHavePaid[bobDecryptingPubKeyX]);\n        require(!allListings[_ipfsCid].bobsThatHaveBeenProvidedDKeys[bobDecryptingPubKeyX], \"this address has already been provided a DKEY\");\n        \n        allListings[_ipfsCid].bobsThatHavePaid[bobDecryptingPubKeyX] = false;\n\n        delete allListings[_ipfsCid].bobsByBidAmounts[bobDecryptingPubKeyX];\n        delete allListings[_ipfsCid].bobsByEthAddress[uint256(uint160(address(msg.sender)))];\n\n        payable(msg.sender).transfer(returnAmount);\n\n        emit BidReclaimed(_ipfsCid, bobDecryptingPubKeyX); // emit this event so alice can filter out reclaimed bids -- or make a view function where alice can see what bobs have made bids..?\n    }\n\n    // TODO: create \"DKEY\" ERC20 token. \"owner\" contract should distribute the accumulated fees to token holders.\n\n    // TODO: a bidding mechanism. allow bob to bid against other bobs when buying from alice, allow charlie to bid against other charlies when buying from bob, etc\n    //  smart contract logic is implemented above, still need:\n    //      - alice's & bob's frontends listening for PaymentReceived events, and responding w dkeys to the highest bids first\n    //      - create a subgraph for frontends to listen to for event data\n\n}",
  "sourcePath": "/Users/basilviolin/dkey-js/1alice-dev/contracts/Test.sol",
  "compiler": {
    "name": "solc",
    "version": "0.7.0+commit.9e61f92b.Emscripten.clang"
  },
  "schemaVersion": "3.4.11",
  "updatedAt": "2024-07-11T03:44:16.425Z",
  "networkType": "ethereum",
  "devdoc": {
    "kind": "dev",
    "methods": {},
    "version": 1
  },
  "userdoc": {
    "kind": "user",
    "methods": {},
    "version": 1
  }
}