{
  "contractName": "Verifier",
  "abi": [
    {
      "inputs": [
        {
          "internalType": "uint256[2]",
          "name": "_pA",
          "type": "uint256[2]"
        },
        {
          "internalType": "uint256[2][2]",
          "name": "_pB",
          "type": "uint256[2][2]"
        },
        {
          "internalType": "uint256[2]",
          "name": "_pC",
          "type": "uint256[2]"
        },
        {
          "internalType": "uint256[7]",
          "name": "_pubSignals",
          "type": "uint256[7]"
        }
      ],
      "name": "verifyProof",
      "outputs": [
        {
          "internalType": "bool",
          "name": "",
          "type": "bool"
        }
      ],
      "stateMutability": "view",
      "type": "function",
      "constant": true
    }
  ],
  "bytecode": "0x608060405234801561001057600080fd5b5061075f806100206000396000f3fe608060405234801561001057600080fd5b506004361061002b5760003560e01c8063c894e75714610030575b600080fd5b61007b60048036036101e081101561004757600080fd5b810190808060400190919291929080608001909192919290806040019091929192908060e001909192919290505050610093565b60405180821515815260200191505060405180910390f35b600061069f565b7f30644e72e131a029b85045b68181585d97816a916871ca8d3c208c16d87cfd4781106100cb576000805260206000f35b50565b600060405183815284602082015285604082015260408160608360076107d05a03fa915081610101576000805260206000f35b825160408201526020830151606082015260408360808360066107d05a03fa915081610131576000805260206000f35b505050505050565b600060808601600087017f3002580d158ced820a21d33941fc418c83b429abbfd3f36856925943c6b64f1b81527f25ba8a59eed3cd51bed4d5bdb459d4b5f381acf2edc8a2c21eedd0d5303243f860208201526101dc60008801357f2c76ce5d3acc4971f4c94c84a12993c4e64dbb793720166a87928bdbae0d13b37f178976c4345da87fec1db1f547931cc6332aec623cc3c0a19bc5bef6a4e5eb44846100ce565b61022c60208801357f2a70d2eb6f15714d0504cd6b5a19b74f63caea05816aa0017fcb8da1cf4b160f7f290576c0acd070efbabfcb51488451b2d5e3ce299e9520bff070d5c11979f43b846100ce565b61027c60408801357f2db268c9278bd045ceb26e94e4953d073c30d7c633825637625174b41e1c7dd27f1b95bcc50806b31f1c65d8257714fe99ec36b53b6a0f02add7b6ffee3ac426b3846100ce565b6102cc60608801357f081a6035cc523e7297b5922615cf0926fffff8f25648c72ff04c4e379487ef287f0cfe2fc30210f1dbe926d1db0437aeb66476e9303411c383105f5078ee903a92846100ce565b61031c60808801357f19295e8d3e477c4416a374751eadba875471722ed18b238f7073a207abd1e0bc7f016daadcd5900764906c147a617eebe2e478abd7eb662b572faad98d14c3d12b846100ce565b61036c60a08801357f243b1332a4ed4f7dee95cbca5c0a787a99ae295b31330bd9b7ffcb2067c6f2137f113a9acf2796e60846b435ff291f8b843a18d2ec18f52f794f3a9b14cd7da04f846100ce565b6103bb60c08801357e7406615426ea0af318b65ac41a39d51113625bbf10a6fcd753b869a732749e7f048b682d4fbc2ac4c4650d12d521ca08a8393199c148393bed72d06480b8d085846100ce565b833582527f30644e72e131a029b85045b68181585d97816a916871ca8d3c208c16d87cfd4760208501357f30644e72e131a029b85045b68181585d97816a916871ca8d3c208c16d87cfd4703066020830152843560408301526020850135606083015260408501356080830152606085013560a08301527f12e6e15a12e806b068c6457cef6103f6aa45ee6be134342f3d6e883258fe3da460c08301527f10f59b7ef7e9b0b6887c42e32dd9a781ef7a164eed5a9e56ec9790d6149b45c860e08301527f2d6da9811d7e7d09cac480f0f881b5709583112820fe30ed79b36165064d9b016101008301527f2c317c31b0bba1a1937449984fb6b7c780197d1632e78ff2d6fba98451e9319b6101208301527f1cd05c0067b12dcc3116342fba11c5567017d974afd1a4f982aabd5d052ccca16101408301527f03015c60da1a427002e91beea5cbd39cecef8d31cf0edcd4bafc599235c955f1610160830152600088015161018083015260206000018801516101a08301527f198e9393920d483a7260bfb731fb5d25f1aa493335a9e71297e485b7aef312c26101c08301527f1800deef121f1e76426a00665e5c4479674322d4f75edadd46debd5cd992f6ed6101e08301527f090689d0585ff075ec9e99ad690c3395bc4b313370b38ef355acdadcd122975b6102008301527f12c85ea5db8c6deb4aab71808dcb408fe3d1e7690c43d37b4ce6cc0166fa7daa610220830152853561024083015260208601356102608301527f149d42674f4db8c97058fa2e1d59ae0db8c18d02ae092a1f1322869d523de9466102808301527f1e5a639fe49be1b8885d110937c1b21ddb900f9159724ca2d0e4133fe674d8c26102a08301527f23a10c7f280630e0512f7c8c3dfede19c1fe8799690fa50943bdc8c02d196cb16102c08301527f223284d1cf67c451e47cbd990a44159a528e1de36999c2a6d335d4677108809b6102e08301526020826103008460086107d05a03fa82518116935050505095945050505050565b60405161038081016040526106b7600084013561009a565b6106c4602084013561009a565b6106d1604084013561009a565b6106de606084013561009a565b6106eb608084013561009a565b6106f860a084013561009a565b61070560c084013561009a565b61071260e084013561009a565b61071f818486888a610139565b8060005260206000f3fea2646970667358221220bc15aa7d6e5214298426e0c00a236f6e594c0704d36c26f41da9d033e3ae453c64736f6c63430007000033",
  "immutableReferences": {},
  "source": "// SPDX-License-Identifier: GPL-3.0\n/*\n    Copyright 2021 0KIMS association.\n\n    This file is generated with [snarkJS](https://github.com/iden3/snarkjs).\n\n    snarkJS is a free software: you can redistribute it and/or modify it\n    under the terms of the GNU General Public License as published by\n    the Free Software Foundation, either version 3 of the License, or\n    (at your option) any later version.\n\n    snarkJS is distributed in the hope that it will be useful, but WITHOUT\n    ANY WARRANTY; without even the implied warranty of MERCHANTABILITY\n    or FITNESS FOR A PARTICULAR PURPOSE. See the GNU General Public\n    License for more details.\n\n    You should have received a copy of the GNU General Public License\n    along with snarkJS. If not, see <https://www.gnu.org/licenses/>.\n*/\n\npragma solidity >=0.7.0 <0.9.0;\n\ncontract Verifier {\n    // Scalar field size\n    uint256 constant r    = 21888242871839275222246405745257275088548364400416034343698204186575808495617;\n    // Base field size\n    uint256 constant q   = 21888242871839275222246405745257275088696311157297823662689037894645226208583;\n\n    // Verification Key data\n    uint256 constant alphax  = 8549561420712122570259641152576381928648205905380222765337915972696456183204;\n    uint256 constant alphay  = 7670956301948269622561263917853416626670549901088546490105495631133910189512;\n    uint256 constant betax1  = 20547834392379649817101847919876071675353906222170625846594158489057591401217;\n    uint256 constant betax2  = 19989198000034401043841740450243362318992763693319872436036708106391345770907;\n    uint256 constant betay1  = 13032898921389320759342048844385475059867051433180091870296642626069078002849;\n    uint256 constant betay2  = 1359342964602244452165157334035454661206525626273907701654660880407452014065;\n    uint256 constant gammax1 = 11559732032986387107991004021392285783925812861821192530917403151452391805634;\n    uint256 constant gammax2 = 10857046999023057135944570762232829481370756359578518086990519993285655852781;\n    uint256 constant gammay1 = 4082367875863433681332203403145435568316851327593401208105741076214120093531;\n    uint256 constant gammay2 = 8495653923123431417604973247489272438418190587263600148770280649306958101930;\n    uint256 constant deltax1 = 9324110261320572946533728226598246229307306117673268879976775779885340551494;\n    uint256 constant deltax2 = 13729089276923227105046442160060725571787764504540751015250902007366422943938;\n    uint256 constant deltay1 = 16115498326928070149691804604672716174634491089251931270677761563326431194289;\n    uint256 constant deltay2 = 15467895892058937801722610335637205288487431938179098836893932612820060897435;\n\n    \n    uint256 constant IC0x = 21715158132553700098284435073159373720457843954838692472277494083030667906843;\n    uint256 constant IC0y = 17065163817212202047263884676167723812730704446403239802465551767545083741176;\n    \n    uint256 constant IC1x = 10646073261023001550087279543665505030055425014845082907897551163654853225284;\n    uint256 constant IC1y = 20111677564522201011458373154396825204561290123342640506442673508259002651571;\n    \n    uint256 constant IC2x = 18554480627815957110243852488370246524771533684731299883202159620662643782715;\n    uint256 constant IC2y = 19196482225771145496983335663071932656718477718992811333389603381127674533391;\n    \n    uint256 constant IC3x = 12477009964668116233236569145502400887621285669672015929805978294367618868915;\n    uint256 constant IC3y = 20669300168511581543119969598291774068276417984372549340114158194282033085906;\n    \n    uint256 constant IC4x = 5876862976938400785104024114502494999434057288154876554519718780318983928466;\n    uint256 constant IC4y = 3665104830394375045942254835458334208581684800214861940571346373390023257896;\n    \n    uint256 constant IC5x = 646078429202099618566471591589233576734426262986443778033016702686567059755;\n    uint256 constant IC5y = 11380914516305421325140746521623768902191342267085535278045108473566227194044;\n    \n    uint256 constant IC6x = 7792864009488296184141969168584061210155123595265816655086083699256950890575;\n    uint256 constant IC6y = 16387639024366276752386999404533307176820595739145634582566848009747384693267;\n    \n    uint256 constant IC7x = 2055562139552005698253557200145570624086545308206740754651946661202307371141;\n    uint256 constant IC7y = 204998293969440924913885932075542285197583868680099750476262819733336913054;\n    \n \n    // Memory data\n    uint16 constant pVk = 0;\n    uint16 constant pPairing = 128;\n\n    uint16 constant pLastMem = 896;\n\n    function verifyProof(uint[2] calldata _pA, uint[2][2] calldata _pB, uint[2] calldata _pC, uint[7] calldata _pubSignals) public view returns (bool) {\n        assembly {\n            function checkField(v) {\n                if iszero(lt(v, q)) {\n                    mstore(0, 0)\n                    return(0, 0x20)\n                }\n            }\n            \n            // G1 function to multiply a G1 value(x,y) to value in an address\n            function g1_mulAccC(pR, x, y, s) {\n                let success\n                let mIn := mload(0x40)\n                mstore(mIn, x)\n                mstore(add(mIn, 32), y)\n                mstore(add(mIn, 64), s)\n\n                success := staticcall(sub(gas(), 2000), 7, mIn, 96, mIn, 64)\n\n                if iszero(success) {\n                    mstore(0, 0)\n                    return(0, 0x20)\n                }\n\n                mstore(add(mIn, 64), mload(pR))\n                mstore(add(mIn, 96), mload(add(pR, 32)))\n\n                success := staticcall(sub(gas(), 2000), 6, mIn, 128, pR, 64)\n\n                if iszero(success) {\n                    mstore(0, 0)\n                    return(0, 0x20)\n                }\n            }\n\n            function checkPairing(pA, pB, pC, pubSignals, pMem) -> isOk {\n                let _pPairing := add(pMem, pPairing)\n                let _pVk := add(pMem, pVk)\n\n                mstore(_pVk, IC0x)\n                mstore(add(_pVk, 32), IC0y)\n\n                // Compute the linear combination vk_x\n                \n                g1_mulAccC(_pVk, IC1x, IC1y, calldataload(add(pubSignals, 0)))\n                \n                g1_mulAccC(_pVk, IC2x, IC2y, calldataload(add(pubSignals, 32)))\n                \n                g1_mulAccC(_pVk, IC3x, IC3y, calldataload(add(pubSignals, 64)))\n                \n                g1_mulAccC(_pVk, IC4x, IC4y, calldataload(add(pubSignals, 96)))\n                \n                g1_mulAccC(_pVk, IC5x, IC5y, calldataload(add(pubSignals, 128)))\n                \n                g1_mulAccC(_pVk, IC6x, IC6y, calldataload(add(pubSignals, 160)))\n                \n                g1_mulAccC(_pVk, IC7x, IC7y, calldataload(add(pubSignals, 192)))\n                \n\n                // -A\n                mstore(_pPairing, calldataload(pA))\n                mstore(add(_pPairing, 32), mod(sub(q, calldataload(add(pA, 32))), q))\n\n                // B\n                mstore(add(_pPairing, 64), calldataload(pB))\n                mstore(add(_pPairing, 96), calldataload(add(pB, 32)))\n                mstore(add(_pPairing, 128), calldataload(add(pB, 64)))\n                mstore(add(_pPairing, 160), calldataload(add(pB, 96)))\n\n                // alpha1\n                mstore(add(_pPairing, 192), alphax)\n                mstore(add(_pPairing, 224), alphay)\n\n                // beta2\n                mstore(add(_pPairing, 256), betax1)\n                mstore(add(_pPairing, 288), betax2)\n                mstore(add(_pPairing, 320), betay1)\n                mstore(add(_pPairing, 352), betay2)\n\n                // vk_x\n                mstore(add(_pPairing, 384), mload(add(pMem, pVk)))\n                mstore(add(_pPairing, 416), mload(add(pMem, add(pVk, 32))))\n\n\n                // gamma2\n                mstore(add(_pPairing, 448), gammax1)\n                mstore(add(_pPairing, 480), gammax2)\n                mstore(add(_pPairing, 512), gammay1)\n                mstore(add(_pPairing, 544), gammay2)\n\n                // C\n                mstore(add(_pPairing, 576), calldataload(pC))\n                mstore(add(_pPairing, 608), calldataload(add(pC, 32)))\n\n                // delta2\n                mstore(add(_pPairing, 640), deltax1)\n                mstore(add(_pPairing, 672), deltax2)\n                mstore(add(_pPairing, 704), deltay1)\n                mstore(add(_pPairing, 736), deltay2)\n\n\n                let success := staticcall(sub(gas(), 2000), 8, _pPairing, 768, _pPairing, 0x20)\n\n                isOk := and(success, mload(_pPairing))\n            }\n\n            let pMem := mload(0x40)\n            mstore(0x40, add(pMem, pLastMem))\n\n            // Validate that all evaluations ∈ F\n            \n            checkField(calldataload(add(_pubSignals, 0)))\n            \n            checkField(calldataload(add(_pubSignals, 32)))\n            \n            checkField(calldataload(add(_pubSignals, 64)))\n            \n            checkField(calldataload(add(_pubSignals, 96)))\n            \n            checkField(calldataload(add(_pubSignals, 128)))\n            \n            checkField(calldataload(add(_pubSignals, 160)))\n            \n            checkField(calldataload(add(_pubSignals, 192)))\n            \n            checkField(calldataload(add(_pubSignals, 224)))\n            \n\n            // Validate all evaluations\n            let isValid := checkPairing(_pA, _pB, _pC, _pubSignals, pMem)\n\n            mstore(0, isValid)\n             return(0, 0x20)\n         }\n     }\n }\n",
  "sourcePath": "/Users/basilviolin/dkey-js/1alice-dev/contracts/Verifier.sol",
  "compiler": {
    "name": "solc",
    "version": "0.7.0+commit.9e61f92b.Emscripten.clang"
  },
  "schemaVersion": "3.4.11",
  "updatedAt": "2024-07-11T03:44:16.412Z",
  "networkType": "ethereum",
  "devdoc": {
    "kind": "dev",
    "methods": {},
    "version": 1
  },
  "userdoc": {
    "kind": "user",
    "methods": {},
    "version": 1
  }
}